{
  "contractName": "Election",
  "abi": [
    {
      "inputs": [
        {
          "internalType": "string",
          "name": "_name",
          "type": "string"
        }
      ],
      "payable": false,
      "stateMutability": "nonpayable",
      "type": "constructor"
    },
    {
      "anonymous": false,
      "inputs": [
        {
          "indexed": false,
          "internalType": "string",
          "name": "candidateName",
          "type": "string"
        },
        {
          "indexed": false,
          "internalType": "uint256",
          "name": "voteCount",
          "type": "uint256"
        }
      ],
      "name": "ElectionResult",
      "type": "event"
    },
    {
      "constant": true,
      "inputs": [
        {
          "internalType": "uint256",
          "name": "",
          "type": "uint256"
        }
      ],
      "name": "candidates",
      "outputs": [
        {
          "internalType": "string",
          "name": "name",
          "type": "string"
        },
        {
          "internalType": "uint256",
          "name": "voteCount",
          "type": "uint256"
        }
      ],
      "payable": false,
      "stateMutability": "view",
      "type": "function"
    },
    {
      "constant": true,
      "inputs": [],
      "name": "currentCandidate",
      "outputs": [
        {
          "internalType": "uint256",
          "name": "",
          "type": "uint256"
        }
      ],
      "payable": false,
      "stateMutability": "view",
      "type": "function"
    },
    {
      "constant": true,
      "inputs": [],
      "name": "electionName",
      "outputs": [
        {
          "internalType": "string",
          "name": "",
          "type": "string"
        }
      ],
      "payable": false,
      "stateMutability": "view",
      "type": "function"
    },
    {
      "constant": true,
      "inputs": [],
      "name": "owner",
      "outputs": [
        {
          "internalType": "address",
          "name": "",
          "type": "address"
        }
      ],
      "payable": false,
      "stateMutability": "view",
      "type": "function"
    },
    {
      "constant": true,
      "inputs": [
        {
          "internalType": "address",
          "name": "",
          "type": "address"
        }
      ],
      "name": "voters",
      "outputs": [
        {
          "internalType": "bool",
          "name": "authorized",
          "type": "bool"
        },
        {
          "internalType": "bool",
          "name": "voted",
          "type": "bool"
        },
        {
          "internalType": "uint256",
          "name": "vote",
          "type": "uint256"
        }
      ],
      "payable": false,
      "stateMutability": "view",
      "type": "function"
    },
    {
      "constant": false,
      "inputs": [
        {
          "internalType": "string",
          "name": "name",
          "type": "string"
        }
      ],
      "name": "addCandidate",
      "outputs": [],
      "payable": false,
      "stateMutability": "nonpayable",
      "type": "function"
    },
    {
      "constant": false,
      "inputs": [
        {
          "internalType": "address",
          "name": "person",
          "type": "address"
        }
      ],
      "name": "authorize",
      "outputs": [],
      "payable": false,
      "stateMutability": "nonpayable",
      "type": "function"
    },
    {
      "constant": false,
      "inputs": [
        {
          "internalType": "uint256",
          "name": "voteIndex",
          "type": "uint256"
        }
      ],
      "name": "vote",
      "outputs": [],
      "payable": false,
      "stateMutability": "nonpayable",
      "type": "function"
    }
  ],
  "bytecode": "0x60806040526000805534801561001457600080fd5b50604051610aad380380610aad8339818101604052602081101561003757600080fd5b810190808051604051939291908464010000000082111561005757600080fd5b8382019150602082018581111561006d57600080fd5b825186600182028301116401000000008211171561008a57600080fd5b8083526020830192505050908051906020019080838360005b838110156100be5780820151818401526020810190506100a3565b50505050905090810190601f1680156100eb5780820380516001836020036101000a031916815260200191505b5060405250505033600160006101000a81548173ffffffffffffffffffffffffffffffffffffffff021916908373ffffffffffffffffffffffffffffffffffffffff1602179055508060029080519060200190610149929190610150565b50506101f5565b828054600181600116156101000203166002900490600052602060002090601f016020900481019282601f1061019157805160ff19168380011785556101bf565b828001600101855582156101bf579182015b828111156101be5782518255916020019190600101906101a3565b5b5090506101cc91906101d0565b5090565b6101f291905b808211156101ee5760008160009055506001016101d6565b5090565b90565b6108a9806102046000396000f3fe608060405234801561001057600080fd5b50600436106100885760003560e01c806385e8e7a71161005b57806385e8e7a7146102425780638da5cb5b146102c5578063a3ec138d1461030f578063b6a5d7de1461037d57610088565b80630121b93f1461008d5780631a272ccf146100bb5780633477ee2e146100d9578063462e91ec14610187575b600080fd5b6100b9600480360360208110156100a357600080fd5b81019080803590602001909291905050506103c1565b005b6100c361048b565b6040518082815260200191505060405180910390f35b610105600480360360208110156100ef57600080fd5b8101908080359060200190929190505050610491565b6040518080602001838152602001828103825284818151815260200191508051906020019080838360005b8381101561014b578082015181840152602081019050610130565b50505050905090810190601f1680156101785780820380516001836020036101000a031916815260200191505b50935050505060405180910390f35b6102406004803603602081101561019d57600080fd5b81019080803590602001906401000000008111156101ba57600080fd5b8201836020820111156101cc57600080fd5b803590602001918460018302840111640100000000831117156101ee57600080fd5b91908080601f016020809104026020016040519081016040528093929190818152602001838380828437600081840152601f19601f82011690508083019250505050505050919291929050505061054d565b005b61024a61060f565b6040518080602001828103825283818151815260200191508051906020019080838360005b8381101561028a57808201518184015260208101905061026f565b50505050905090810190601f1680156102b75780820380516001836020036101000a031916815260200191505b509250505060405180910390f35b6102cd6106ad565b604051808273ffffffffffffffffffffffffffffffffffffffff1673ffffffffffffffffffffffffffffffffffffffff16815260200191505060405180910390f35b6103516004803603602081101561032557600080fd5b81019080803573ffffffffffffffffffffffffffffffffffffffff1690602001909291905050506106d3565b604051808415151515815260200183151515158152602001828152602001935050505060405180910390f35b6103bf6004803603602081101561039357600080fd5b81019080803573ffffffffffffffffffffffffffffffffffffffff169060200190929190505050610717565b005b80600360003373ffffffffffffffffffffffffffffffffffffffff1673ffffffffffffffffffffffffffffffffffffffff168152602001908152602001600020600101819055506001600360003373ffffffffffffffffffffffffffffffffffffffff1673ffffffffffffffffffffffffffffffffffffffff16815260200190815260200160002060000160016101000a81548160ff0219169083151502179055506001600460008381526020019081526020016000206001016000828254019250508190555050565b60005481565b6004602052806000526040600020600091509050806000018054600181600116156101000203166002900480601f01602080910402602001604051908101604052809291908181526020018280546001816001161561010002031660029004801561053d5780601f106105125761010080835404028352916020019161053d565b820191906000526020600020905b81548152906001019060200180831161052057829003601f168201915b5050505050908060010154905082565b600160009054906101000a900473ffffffffffffffffffffffffffffffffffffffff1673ffffffffffffffffffffffffffffffffffffffff163373ffffffffffffffffffffffffffffffffffffffff16146105a757600080fd5b60405180604001604052808281526020016000815250600460008054815260200190815260200160002060008201518160000190805190602001906105ed9291906107cf565b5060208201518160010155905050600080815480929190600101919050555050565b60028054600181600116156101000203166002900480601f0160208091040260200160405190810160405280929190818152602001828054600181600116156101000203166002900480156106a55780601f1061067a576101008083540402835291602001916106a5565b820191906000526020600020905b81548152906001019060200180831161068857829003601f168201915b505050505081565b600160009054906101000a900473ffffffffffffffffffffffffffffffffffffffff1681565b60036020528060005260406000206000915090508060000160009054906101000a900460ff16908060000160019054906101000a900460ff16908060010154905083565b600160009054906101000a900473ffffffffffffffffffffffffffffffffffffffff1673ffffffffffffffffffffffffffffffffffffffff163373ffffffffffffffffffffffffffffffffffffffff161461077157600080fd5b6001600360008373ffffffffffffffffffffffffffffffffffffffff1673ffffffffffffffffffffffffffffffffffffffff16815260200190815260200160002060000160006101000a81548160ff02191690831515021790555050565b828054600181600116156101000203166002900490600052602060002090601f016020900481019282601f1061081057805160ff191683800117855561083e565b8280016001018555821561083e579182015b8281111561083d578251825591602001919060010190610822565b5b50905061084b919061084f565b5090565b61087191905b8082111561086d576000816000905550600101610855565b5090565b9056fea265627a7a72315820126a3cc862db958bcfea31a22f2f34dbda746e17c8cd6fa6619290c501533cf364736f6c63430005100032",
  "source": "pragma solidity ^0.5.0;\r\n// pragma experimental ABIEncoderV2;\r\n/*\r\nElection contract that allows the owner to issue voting rights\r\nto anybody and also end the election and announce results\r\n*/\r\ncontract Election {\r\n\r\n    struct Candidate {\r\n        string name;\r\n        uint voteCount;\r\n    }\r\n\r\n    struct Voter {\r\n        bool authorized;\r\n        bool voted;\r\n        uint vote;\r\n    }\r\n\r\n    uint public currentCandidate = 0;\r\n\r\n    address public owner;\r\n    string public electionName;\r\n\r\n    mapping(address => Voter) public voters;\r\n    // Candidate[] public candidates;\r\n    mapping(uint => Candidate) public candidates;\r\n\r\n\r\n    // address[] public voterAddresses;\r\n\r\n    // function getVotersAddresses() public view returns (address[] memory) {\r\n    //     return voterAddresses;\r\n    // }\r\n\r\n\r\n\r\n\r\n\r\n    event ElectionResult(string candidateName, uint voteCount);\r\n\r\n    modifier ownerOnly() {\r\n        require(msg.sender == owner);\r\n        _;\r\n    }\r\n\r\n    constructor(string memory _name) public {\r\n        owner = msg.sender;\r\n        electionName = _name;\r\n    }\r\n\r\n    // Retrieving the candidates\r\n    // function getCandidates(uint id) public view returns (Candidate memory) {\r\n    //     return candidates[id];\r\n    // }\r\n\r\n    function addCandidate(string memory name) ownerOnly public {\r\n        candidates[currentCandidate] = Candidate(name, 0);\r\n        currentCandidate++;\r\n    }\r\n\r\n    // function addCandidate(string memory name) public ownerOnly returns (uint){\r\n    //     candidates[currentCandidate] = Candidate(name, 0);\r\n    //     currentCandidate++;\r\n    //     return currentCandidate-1;\r\n    // }\r\n\r\n    function authorize(address person) public ownerOnly  {\r\n        voters[person].authorized = true;\r\n    }\r\n\r\n    function vote(uint voteIndex) public{\r\n        //make sure voter is authorized and has not already voted\r\n\r\n        // require(!voters[msg.sender].voted, \"YOU VOTED ALREADY\");\r\n\r\n\r\n        // require(voters[msg.sender].authorized);\r\n\r\n        //record vote\r\n        voters[msg.sender].vote = voteIndex;\r\n        voters[msg.sender].voted = true;\r\n\r\n        //increase candidate vote count by 1\r\n        candidates[voteIndex].voteCount += 1;\r\n        // voterAddresses.push(msg.sender);\r\n        // return candidates[voteIndex].voteCount;\r\n    }\r\n\r\n    // function end() ownerOnly public {\r\n    //     //announce each candidates results\r\n    //     for(uint i=0; i < candidates.length; i++) {\r\n    //         emit ElectionResult(candidates[i].name, candidates[i].voteCount);\r\n    //     }\r\n\r\n    //     //destroy the contract\r\n    //     selfdestruct(owner);\r\n    // }\r\n}",
  "sourcePath": "D:\\Vsc workspace\\try\\contracts\\Election.sol",
  "compiler": {
    "name": "solc",
    "version": "0.5.16+commit.9c3226ce.Emscripten.clang"
  },
  "schemaVersion": "3.4.4",
  "updatedAt": "2022-02-18T11:13:17.754Z",
  "networkType": "ethereum",
  "devdoc": {
    "methods": {}
  },
  "userdoc": {
    "methods": {}
  }
}